:020000040800F2
:100000000050002081000008B1000008B100000885
:10001000B1000008B1000008B1000008B1000008FC
:10002000B1000008B1000008B1000008B1000008EC
:10003000B1000008B1000008B1000008B1000008DC
:10004000B1000008B1000008B1000008B1000008CC
:10005000B1000008B1000008B1000008B1000008BC
:10006000B1000008B1000008B1000008B1000008AC
:10007000B1000008B1000008B1000008B10000089C
:100080000C480D490D4A884206D0884204D052F8E7
:10009000043B40F8043BF8E709480A494FF00002E6
:1000A000884202D040F8042BFAE700F015FDFEE785
:1000B000FEE700000000002004000020480D0008BA
:1000C000040000202400002008B5064B1A783AB935
:1000D000054A1AB10548AFF30080024B01221A709D
:1000E00008BD00BF0400002000000000780C0008DC
:1000F00008B5034B1BB103490348AFF3008008BDAB
:100100000000000008000020780C000880B483B0D4
:1001100000AF0346FB71FB79002B01D1064B05E0D4
:10012000FB79012B01D1054B00E0002318460C3769
:10013000BD4680BC704700BF00080140000C014074
:1001400080B483B000AF0346FB71FB79002B06D16E
:100150000A4B1B68094A43F00403136008E0FB796B
:10016000012B05D1054B1B68044A43F008031360BB
:1001700000BF0C37BD4680BC704700BF181002405E
:1001800080B400AF0A4B1B68094A43F001031360B7
:10019000084B1B68074A23F0E0631360054B1B689C
:1001A000044A43F00073136000BFBD4680BC704733
:1001B000181002400400014080B586B000AF03462D
:1001C000FB710B46BB7113467B71BB790F2B47D874
:1001D000FB791846FFF79AFFF860FB68002B41D0C7
:1001E000FB791846FFF7ACFFFB79012B07D1BB79F0
:1001F000032B02D0BB79042B01D1FFF7C1FFBB79E0
:10020000072B05D8FB687B61BB799B003B6106E04F
:10021000FB6804337B61BB79083B9B003B617B69D6
:100220001A680F213B6901FA03F3DB431A407B692B
:100230001A607B79012B09D17B691A6802213B691D
:1002400001FA03F31A437B691A600CE07B691A68B0
:1002500004213B6901FA03F31A437B691A6002E047
:1002600000BF00E000BF1837BD4680BD80B586B036
:1002700000AF0346FB710B46BB7113467B71BB7924
:100280000F2B1CD8FB791846FFF740FF78617B697C
:10029000002B16D07B6910333B617B691433FB6004
:1002A0007B79002B05D0BB7901229A403B691A600B
:1002B00008E0BB7901229A40FB681A6002E000BFA7
:1002C00000E000BF1837BD4680BD80B584B000AFE8
:1002D00003460A46FB711346BB71BB790F2B01D94C
:1002E000002318E0FB791846FFF710FFF860FB6861
:1002F000002B01D100230EE0FB680833BB60BB6814
:100300001A68BB7922FA03F303F00103002B01D032
:10031000012300E0002318461037BD4680BD80B49D
:1003200085B000AF78600023FB600CE00023BB6069
:1003300002E0BB680133BB60BB68B3F57A7FF8D3DA
:10034000FB680133FB60FB687A689A42EED800BF15
:1003500000BF1437BD4680BC7047000080B483B036
:1003600000AF6FF00F037B600B4B1B680A4A43F032
:1003700008031360094B1A687B68DB430749134085
:100380000B60064B1A680549054B13430B6000BF11
:100390000C37BD4680BC704718100240040C014069
:1003A0001011111180B400AF084B00221A60084BE5
:1003B00041F63F721A60074B00221A60034B052278
:1003C0001A6000BFBD4680BC704700BF10E000E06F
:1003D00014E000E018E000E080B483B000AF034612
:1003E000FB8010E00C4B41F63F721A600B4B002271
:1003F0001A6000BF0A4B1B6803F48033002BF9D04E
:10040000FB88013BFB80FB88002BEBD100BF00BFCA
:100410000C37BD4680BC704714E000E018E000E0F7
:1004200010E000E080B485B000AF0346FB710B46DE
:10043000BB7113467B71FB799A020F4B1344FB602F
:10044000BB79012202FA03F3BB607B79002B06D053
:10045000FB681A68BB681A43FB681A6006E0FB6811
:100460001A68BB68DB431A40FB681A6000BF143788
:10047000BD4680BC704700BF0C08014080B500AF8E
:1004800001220B210120FFF7CDFF0120FFF7A4FF80
:1004900000220B210120FFF7C5FF00BF80BD80B502
:1004A00082B000AF0346FB71FB7903F00103DBB2BE
:1004B0001A460C210120FFF7B5FFFB7903F0020378
:1004C000C3F34003DBB21A460D210120FFF7AAFF58
:1004D000FB7903F00403C3F38003DBB21A460E2159
:1004E0000120FFF79FFFFB7903F00803C3F3C0036C
:1004F000DBB21A460F210120FFF794FFFFF7BEFF82
:1005000000BF0837BD4680BD80B582B000AF03464E
:10051000FB71002209210120FFF784FF00220A213C
:100520000120FFF77FFFFB791B09DBB21846FFF7BD
:10053000B6FFFB7903F00F03DBB21846FFF7AFFFFE
:1005400000BF0837BD4680BD80B582B000AF03460E
:10055000FB71012209210120FFF764FF00220A211B
:100560000120FFF75FFFFB791B09DBB21846FFF79D
:1005700096FFFB7903F00F03DBB21846FFF78FFFFE
:1005800000BF0837BD4680BD80B483B000AF0346CE
:100590000A46FB711346BB71FB79132B04D8BB7958
:1005A000032B01D8012300E0002303F00103DBB299
:1005B00018460C37BD4680BC7047000080B582B03D
:1005C00000AF0823FB71104B1B78002B03D0FB7985
:1005D00043F00403FB710D4B1B78002B03D0FB7918
:1005E00043F00203FB710A4B1B78002B03D0FB790D
:1005F00043F00103FB71FB791846FFF785FF00BF4D
:100600000837BD4680BD00BF00000020220000204A
:100610002300002080B58EB000AF78600B46FB70E1
:10062000212387F83730FB78012B35D9FB78102B45
:1006300032D8FA787B68B3FBF2F101FB02F29B1A25
:100640003B6397F83730013B87F8373097F83730FE
:1006500013493A6B0A44127838333B4403F82C2C84
:10066000FB787A68B2FBF3F37B607B68002BE0D108
:100670000DE097F8373038333B4413F82C3C1846DC
:1006800000F072F997F83730013387F8373097F870
:100690003730202BEDD900E000BF3837BD4680BD94
:1006A0001C0D000880B500AFFFF758FEFFF77AFE7B
:1006B0003220FFF791FE3320FFF726FF3220FFF7AD
:1006C00023FF2820FFF720FF084B01221A70084B58
:1006D00000221A70074B00221A70FFF76FFF0620E6
:1006E000FFF712FF00F008F800BF80BD00000020F7
:1006F000220000202300002080B500AF0120FFF77A
:1007000003FF0220FFF768FE034B00221A70034B21
:1007100000221A7000BF80BD2000002021000020B0
:1007200080B582B000AF78607B68002B35D02FE0B9
:100730007B681B780A2B11D11C4B1B780133DBB271
:10074000032B2CD8194B1B780133DBB21946002040
:1007500000F02AF97B6801337B6019E0144B1B78A9
:10076000132B0DD9114B1B780133DBB2032B18D897
:100770000E4B1B780133DBB21946002000F014F950
:100780007B681B78184600F0EFF87B6801337B60CC
:100790007B681B78002BCBD104E000BF02E000BFD8
:1007A00000E000BF0837BD4680BD00BF210000202B
:1007B0002000002080B582B000AF03463A60FB7194
:1007C0000B46BB71BA79FB7911461846FFF7DCFE80
:1007D000034683F00103DBB2002B1ED13B68002BE4
:1007E0001BD0BA79FB791146184600F0DDF807E016
:1007F0003B681B78184600F0B7F83B6801333B6054
:100800003B681B78002B09D03B681B780A2B05D06E
:10081000044B1B78132BEBD900E000BF0837BD4613
:1008200080BD00BF2000002080B584B000AF03462B
:100830003960FB710023FB73FB79032B2CD83B68D9
:10084000002B29D0FB791946002000F0ADF809E013
:10085000FB7B3A6813441B78184600F085F8FB7B55
:100860000133FB73FB7B132B12D8FB7B3A681344D9
:100870001B78002B0CD0FB7B3A6813441B780A2BA7
:10088000E6D105E0202000F06FF8FB7B0133FB731D
:10089000FB7B132BF6D900E000BF1037BD4680BDAF
:1008A00080B584B000AF03463960FB710023FB7351
:1008B000FB79032B46D83B68002B43D002E0FB7B3F
:1008C0000133FB73FB7B132B0BD8FB7B3A68134480
:1008D0001B78002B05D0FB7B3A6813441B780A2B4E
:1008E000EDD1FB7BC3F114035B087B73FB791946E5
:1008F000002000F059F80023BB7305E0202000F031
:1009000033F8BB7B0133BB73BA7B7B7B9A42F5D355
:100910000023BB7309E0BB7B3A6813441B7818467D
:1009200000F022F8BB7B0133BB73BA7BFB7B9A429E
:10093000F1D302E0202000F017F8044B1B78132BB2
:10094000F8D900E000BF1037BD4680BD2000002070
:1009500080B582B000AF78600A217868FFF75AFE50
:1009600000BF0837BD4680BD80B582B000AF0346EA
:10097000FB710B4B1B78132B0ED80A4B1B78032BE8
:100980000AD8FB791846FFF7DFFD054B1B780133CA
:10099000DAB2034B1A7000E000BF0837BD4680BDD5
:1009A000200000202100002080B582B000AF034667
:1009B0000A46FB711346BB71BA79FB79114618469A
:1009C000FFF7E2FD034683F00103DBB2002B12D1F7
:1009D000BB790B4AD25CFB791344DBB263F07F0333
:1009E000DBB21846FFF790FD064AFB791370064A02
:1009F000BB79137000E000BF0837BD4680BD00BF63
:100A0000180D0008200000202100002080B584B0CF
:100A100000AF03460A46FB711346BB71FB79234ABC
:100A2000D35CFB73FB79224AD35CBB73FFF764FE94
:100A30002048FFF775FEFB791846FFF789FFBB7961
:100A4000002B03D01C48FFF76BFE02E01B48FFF7AA
:100A500067FE1B4A01210020FFF7ACFEFB7B184616
:100A6000FFF776FF174A02210020FFF7A3FEBB7BAA
:100A70001846FFF76DFF144A03210020FFF79AFE86
:100A8000FB791846FFF764FF1048FFF749FEBB7972
:100A9000002B03D00E48FFF743FE02E00D48FFF79E
:100AA0003FFE00BF1037BD4680BD00BF300D0008BF
:100AB000380D0008900C0008940C00089C0C0008ED
:100AC000A80C0008B40C0008C00C0008C40C0008F6
:100AD000CC0C0008D00C000890B587B000AFFFF731
:100AE000E1FD0023FB7519E0FB7D5D4AD35C00222C
:100AF00019460020FFF760FBFB7D594AD35CFC7D63
:100B000019460020FFF7E1FB03461A4604F11803DB
:100B10003B4403F8142CFB7D0133FB75FB7D072B55
:100B2000E2D90023FB7512E0FB7D4E4AD35C012223
:100B300019460120FFF740FBFB7D4A4AD35C0122A6
:100B400019460120FFF792FBFB7D0133FB75FB7D0E
:100B5000072BE9D9FFF7D0FD43490020FFF7A0FE9E
:100B600042490120FFF760FE41490220FFF75CFE89
:100B700040490320FFF758FE0023FB756CE0FB7D26
:100B8000374AD35CFC7D19460020FFF79EFB0346E5
:100B90001A4604F118033B4403F80C2CFB7D183370
:100BA0003B4413F8143C012B21D1FB7D18333B440B
:100BB00013F80C3C002B1AD11420FFF7B0FBFB7D7F
:100BC000274AD35C19460020FFF77FFB0346002B22
:100BD00035D1FB7D234AD35C002219460120FFF763
:100BE00045FBFB7D01211846FFF710FF27E0FB7D49
:100BF00018333B4413F8143C002B20D1FB7D1833F1
:100C00003B4413F80C3C012B19D11420FFF787FB50
:100C1000FB7D134AD35C19460020FFF756FB0346C1
:100C2000012B0CD1FB7D0F4AD35C01221946012018
:100C3000FFF71CFBFB7D00211846FFF7E7FEFA7D5E
:100C4000FB7D18323A4412F80C2C18333B4403F85D
:100C5000142CFB7D0133FB75FB7D072B8FD98BE7B4
:100C6000300D0008380D0008D40C0008E00C000816
:100C7000F40C0008040D0008F8B500BFF8BC08BC6F
:100C80009E467047F8B500BFF8BC08BC9E4670474A
:100C900050315F0020415050555945002052454C7D
:100CA0004143484500000000426F75746F6E3A2062
:100CB00050410000536F727469653A205042000041
:100CC00050325F00204C4544203D20004F4E000034
:100CD0004F46460054455354204750494F000000AA
:100CE000504F525431203D203820626F75746F6E22
:100CF00073000000504F525432203D2038204C45A4
:100D00004400000041707075696520756E20626F47
:100D100075746F6E0000000000401454303132339F
:100D200034353637383941424344454600000000E7
:100D3000010203040506070800010304070605086D
:040D4000F1000008B6
:040D4400C9000008DA
:040D480001000000A6
:04000005080000816E
:00000001FF
