:020000040800F2
:1000000000500020ED0000082F0100082F0100081B
:100010002F0100082F0100082F0100080000000038
:100020000000000000000000000000002F01000898
:100030002F010008000000002F0100089D010008AA
:100040002F0100082F0100082F0100082F010008D0
:100050002F0100082F0100082F0100082F010008C0
:100060002F0100082F0100082F0100082F010008B0
:100070002F0100082F0100082F0100082F010008A0
:100080002F0100082F0100082F0100082F01000890
:100090002F0100082F0100082F0100082F01000880
:1000A0002F0100082F0100082F0100082F01000870
:1000B000ED0200082F0100082F0100082F010008A1
:1000C0002F0100082F0100082F0100082F01000850
:1000D0002F0100082F0100082F0100082F01000840
:0C00E0002F0100082F0100082F0100086C
:1000EC0010481149114A884206D0884204D052F86F
:1000FC00043B40F8043BF8E70D480E494FF0000272
:10010C00884202D040F8042BFAE70B480B490860F0
:10011C00BFF34F8FBFF36F8F00F0A4F900F0CEF94F
:10012C00FEE7FEE700000020000000209805000814
:10013C0000000020080000200000000808ED00E08E
:10014C0080B400AF094B00221A60094B00221A60E0
:10015C00084B41F63F721A60074B00221A60034BA2
:10016C0007221A6000BFBD4680BC704710E000E05B
:10017C000000002014E000E018E000E080B400AFC4
:10018C00024B1B681846BD4680BC7047000000201F
:10019C0080B400AF044B1B680133034A136000BFEB
:1001AC00BD4680BC704700BF0000002080B400AF8B
:1001BC00104B4FF080521A600F4B1B680E4A43F0E5
:1001CC00010313604FF0804300221A600B4B002296
:1001DC001A600B4B00221A600A4B00221A600A4B61
:1001EC004FF080521A60094B00221A7000BFBD46B6
:1001FC0080BC704780E100E01C1002400C00004005
:10020C00100000402400004080E200E004000020C8
:10021C0080B400AF4FF0804304221A600D4B0122D2
:10022C001A600D4B00221A600C4B00221A600C4B0A
:10023C004FF080521A600B4B01221A600A4B4FF0A0
:10024C0080521A604FF0804305221A6000BFBD46F1
:10025C0080BC704714000040100000402400004097
:10026C0080E200E00C00004000E100E080B500AF4F
:10027C00FFF79CFF094B4F221A60094B09221A60A9
:10028C00084B00221A70084B01221A70012000F052
:10029C0081F8FFF7BDFF00BF80BD00BF2800004004
:1002AC002C000040050000200400002080B500AFA9
:1002BC00FFF77CFF074B41F63F721A60064B40F28A
:1002CC00F3121A60054B02221A70FFF7A1FF00BF50
:1002DC0080BD00BF280000402C000040040000201E
:1002EC0080B500AF194B1B6803F00103002B2BD01A
:1002FC00164B00221A60164B1B78DBB2012B1BD15C
:10030C00144B1B78DBB2312B03D8012000F042F8E0
:10031C0002E0002000F03EF80E4B1B78DBB20133FC
:10032C00DAB20C4B1A700B4B1B78DBB2632B0CD96B
:10033C00084B00221A7008E0054B1B78DBB2022B2D
:10034C0003D100F043F800E000BF80BD1000004076
:10035C00040000200500002080B500AF0B4B1B688B
:10036C000A4A43F008031360002000F013F8084B0E
:10037C001B68074A23F070631360054B1B68044A23
:10038C0043F00073136000BF80BD00BF1810024023
:10039C00000C014080B483B000AF0346FB71FB79C5
:1003AC00012B04D1074B4FF480021A6002E0054B7D
:1003BC0040221A60044AFB79137000BF0C37BD460B
:1003CC0080BC7047100C01400600002080B500AFC7
:1003DC00064B1B78002B03D10120FFF7DBFF02E05B
:1003EC000020FFF7D7FF00BF80BD00BF0600002034
:1003FC0080B400AF0A4B1B68094A43F00803136032
:10040C00084B1B68074A23F470031360054B1B68E9
:10041C00044A43F48003136000BFBD4680BC7047A0
:10042C0018100240000C014080B483B000AF0C4B9C
:10043C001B6803F02003002B02D00123FB7101E0A9
:10044C000023FB71FB79002B0CBF01230023DBB2D3
:10045C00FB71FB7918460C37BD4680BC704700BF5A
:10046C00080C014080B400AF124B1B68114A43F0DA
:10047C000103136000BF0F4B1B6803F00203002B3A
:10048C00F9D00D4B1B680C4A23F00303136000BF1B
:10049C00094B1B6803F00C03002BF9D1064B1B68AE
:1004AC00054A23F47F5323F03003136000BFBD468D
:1004BC0080BC7047001002400410024080B586B02A
:1004CC0000AF0023FB7500233B610023FB60FFF7AB
:1004DC0043FFFFF78DFFFFF769FEFFF731FEFFF7D4
:1004EC00A3FF0346FB72FB7ABB75FB7A7B7501207D
:1004FC00FFF750FFFFF742FE7860FFF795FF0346CA
:10050C00FB72FA7ABB7D9A4203D0FB7ABB757B688F
:10051C003B61FA7A7B7D9A4227D07A683B69D31A81
:10052C00132B22D9FB7A7B757B7D002B1DD0FB7D99
:10053C000133FB75FB7D022B01D90023FB75FFF703
:10054C0035FE0020FFF726FFFB7D002B05D1012097
:10055C00FFF720FF7B68FB6007E0FB7D012B02D1DE
:10056C00FFF784FE01E0FFF7A1FEFB7D002B09D114
:10057C007A68FB68D31AB3F5FA7F03D37B68FB6008
:0C058C00FFF724FFBFF34F8F30BFB3E731
:04000005080000ED02
:00000001FF
